:10000000C05200202D12010013B00100E5110100C3
:10001000E5110100E5110100E511010000000000FB
:100020000000000000000000000000006D0E010054
:10003000E511010000000000150E0100E5110100AE
:100040004D0F010061D601004D0F01004D0F010061
:100050004D0F01004D0F01004D0F01004D0F01002C
:1000600029D601004D0F01004D0F010047D60100B8
:100070004D0F01004D0F01004D0F01004D0F01000C
:100080004D0F01004D0F01004D0F01004D0F0100FC
:100090004D0F01004D0F01004D0F01004D0F0100EC
:1000A0004D0F01004D0F01004D0F01004D0F0100DC
:1000B0004D0F01004D0F01004D0F01004D0F0100CC
:1000C0004D0F01004D0F01004D0F01004D0F0100BC
:1000D0004D0F01004D0F01004D0F01004D0F0100AC
:1000E0004D0F01004D0F01004D0F01004D0F01009C
:1000F0004D0F01004D0F01004D0F01004D0F01008C
:1001000053B94AB9002908BF00281CBF4FF0FF317E
:100110004FF0FF3000F00CB8ADF1080C6DE904CEE3
:100120000CF026FADDF804E0DDE9022304B07047A4
:10013000704700BF01480078704700002800002089
:1001400070B50CF0AAFC134C6FF0270528B90CF021
:10015000DAFC10B90CF0E1FC20B10F48606065706A
:10016000082010E00CF06EFC40B90CF075FC28B9CA
:100170000CF089FC10B90CF09AFC30B10648313013
:10018000606065700420A07070BDE821742003F0E9
:1001900019FB0000280000201EF80000074991F913
:1001A0000220904203DA91F90120904201DC1046CE
:1001B00070474968801A08567047000028000020E0
:1001C0002DE9F0411C4690460D4606466FF0150796
:1001D000042804D81CB10CF01EFBA84202D83846F3
:1001E000BDE8F0810548424650F8260018B1405756
:1001F000824200DD024622700020F1E7480D002017
:1002000001480078704700003000002005490A7856
:10021000904201D300207047496800EB400001EB99
:1002200000107047300000200E4910B591F82D00E5
:10023000202812D091F82D00A1F58062C0EBC000FB
:1002400002EB800091F82D104068C1EBC10152F81B
:100250002120BDE810400421104740F6870170209E
:1002600003F0B0FA5C11002070B50546202A28D0B2
:1002700019481A4C00EB831C03EB43030CEB4200C0
:100280002344202922D00CEB410140784C7848705F
:10029000204601460CEB4100914205704078F8D1B0
:1002A00093F82220202A1ABF0CEB4202547083F8E4
:1002B000214020220CEB410C8CF8012083F8221005
:1002C00070BD40F29221702003F07CFA93F8204038
:1002D000407883F82000DBE7DC1000205C11002070
:1002E0002DE9FF4F85B015460C4602F0CBF92844A6
:1002F00020F07F4102912068401A0002C11700EBF4
:1003000011600012002800F3F080DDF82080CA4858
:1003100008EB48010844039090F820502020C74E75
:10032000EA460DF104098DF80000202D1CBFC448D9
:1003300000EB881B39D000BFC5EBC50006EB800081
:1003400000F10801C0682768381A0002C21700EBE4
:100350001260001229D4E08900B3C889F0B9086896
:10036000049003F0A3F8B0F5C67F08BF0D200BD0B2
:10037000A0F54070563808BF1C2005D0A0F50070CD
:100380009F3814BF00203220411C0498381A000204
:10039000C21700EB12600012884206DB0BEB45002F
:1003A0008AF800504578202DC6D19AF8000089F8C7
:1003B0000000202D1CBFA24800EB881B00F03881F4
:1003C000C5EBC50006EB80076068D7F8088007F129
:1003D0000801A8EB00000002C21700EB1260001237
:1003E00027D4C889002800F02381E089002840F044
:1003F0001F81D4F800A003F059F8B0F5C67F08BFFC
:100400000D200BD0A0F54070563808BF1C2005D039
:10041000A0F500709F3814BF00203220411CA8EBCB
:100420000A000002C21700EB12600012884280F23C
:10043000FF8089F80050397E207C814206D90BEB81
:1004400045004578202DBBD100F0F2B89DF804009E
:10045000C0EBC00006EB8000C18AC568E1BBE18942
:10046000D1B3876803F022F8B0F5C67F08BF0D202E
:100470000BD0A0F54070563808BF1C2005D0A0F561
:1004800000709F3814BF00203220411CE81B00027E
:10049000C21700EB1260001288421DDA03F006F862
:1004A000B0F5C67F08BF0D200BD0A0F540705638C0
:1004B00008BF1C2005D0A0F500709F3814BF002095
:1004C00032209DF80410401CC1EBC10106EB8101F4
:1004D0008968084420F07F450298281A0002C11755
:1004E00000EB11600012002803DD09B00020BDE818
:1004F000F08FD4E90010401A284425F07F4120F005
:100500007F40C4E90010089804900398EA460DF172
:10051000040890F8205020208DF80000202D3CD0B9
:100520004748049900EB811BC5EBC50006EB800032
:1005300000F10801C0682768381A0002C21700EBF2
:100540001260001229D4E08900B3C889F0B9D1F84B
:10055000009002F0ABFFB0F5C67F08BF0D200BD0B6
:10056000A0F54070563808BF1C2005D0A0F50070DB
:100570009F3814BF00203220411CA7EB0900000265
:10058000C21700EB12600012884206DB0BEB45003D
:100590008AF800504578202DC6D19AF8000088F8D6
:1005A00000000498202D1CBF254901EB801B3FD083
:1005B000C5EBC50006EB80076168D7F8089007F126
:1005C0000800A9EB01010902CA1701EB1261091227
:1005D00022D4C08960B3E08950BBD4F800A002F0F7
:1005E00065FFB0F5C67F08BF0D200BD0A0F54070A9
:1005F000563808BF1C2005D0A0F500709F3814BFE6
:1006000000203220411CA9EB0A000002C21700EBB7
:100610001260001288420BDA88F80050387E217C84
:1006200088427FF613AF0BEB45004578202DBFD1F4
:1006300009B00120BDE8F08F5C1100205C0D0020A6
:10064000DC1000202DE9F84F0F46064601EB47006D
:100650004B4999460844924690F82040202010705B
:10066000A1F58068202C1CBF464800EB871B38D0C2
:10067000C4EBC40008EB800000F10801C0683568D5
:10068000281A0002C21700EB1260001229D4F08968
:1006900000B3C889F0B90868009002F007FFB0F510
:1006A000C67F08BF0D200BD0A0F54070563808BF9C
:1006B0001C2005D0A0F500709F3814BF0020322008
:1006C000411C0098281A0002C21700EB12600012A9
:1006D000884206DB0BEB44008AF800404478202C6B
:1006E000C6D19AF8000089F80000202C1CBF2548CC
:1006F00000EB871A40D000BFC4EBC40008EB8007B2
:100700007068BD6807F10801281A0002C21700EBE3
:100710001260001222D4C88970B3F08960BBD6F889
:1007200000B002F0C3FEB0F5C67F08BF0D200BD0AD
:10073000A0F54070563808BF1C2005D0A0F5007009
:100740009F3814BF00203220411CA5EB0B00000293
:10075000C21700EB1260001288420DDA89F80040DF
:10076000387E317C884202D80020BDE8F88F0AEB41
:1007700044004478202CBFD10120BDE8F88F000050
:100780005C110020DC1000202DE9F04182B005460C
:1007900014468846D08901AA694601F08FFF02F00D
:1007A000B7FC01F06FFF0746204890F82D10202974
:1007B00004D0C068401D20F07F4124E0E08905F1AD
:1007C0000906B0B102F086FF98B902F06FFEB0F5ED
:1007D000C67F08BF0D200BD0A0F54070563808BF6B
:1007E0001C2005D0A0F500709F3814BF00203220D7
:1007F0000644B8F1000F04D10098874284BF381A2C
:10080000064426F07F41D4E90020801A084420F0F5
:100810007F40C4E90010A94224BF02B0BDE8F081C6
:10082000A068401CA06002B0BDE8F0815C1100200F
:100830002DE9F04F97B017468B46054602F0D0F9E8
:10084000044602F065FC0646BBF1010F18BFBBF180
:10085000020F05D040F65D114FF0700002F0B2FFBC
:10086000F84901200860F8498968086000208DF87F
:100870004E000C90401E0D90F449C7EBC70001EBF1
:10088000800000F108010DF1380891E80E1088E8A9
:100890000E10806912900EA800F0C4FB0790EC487F
:1008A000BDF84680808BADF84C00B8F1000F04BF56
:1008B000002006900BD001200690E54890F82A0011
:1008C00028B902F007FF002808BF012700D0002741
:1008D00002F0ECFDB0F5C67F08BF0D200BD0A0F5EF
:1008E0004070563808BF1C2005D0A0F500709F3816
:1008F00014BF002032204FF00009CA460B90464535
:1009000038D90799DFF84C936FEA060C6B4616AAA4
:1009100001EB0C00494504D940F26F51702002F000
:1009200051FFCD498C4504DD4FF4AE61702002F0DB
:1009300049FFCA498C4504DA40F27151702002F037
:1009400041FFC7498142DCBF00F5F700A0F1F85034
:1009500005DD0028BCBFA0F5F70000F1F8501946EE
:1009600001F0ACFE00980E9920F07F400090081A2C
:1009700020F07F49002F18BFDDF82CA005D19DF88D
:100980004C00002818BF4FF0020AB4F1807F08D055
:100990000E98001B0002C11700EB11600012012825
:1009A00001DA03200DE057B1A94890F82B0030B1CF
:1009B0009DF84C0010F1000A18BF4FF0020A2546BE
:1009C000002082440E98A0EB090020F07F42501EC8
:1009D00020F07F40411B0902CB1701EB1361091284
:1009E000514504DBB9F1000F18BF0E922DE0B9F1AB
:1009F000000F05D09DF84D0020B902F07FFB08B133
:100A0000AFB90CE02FB99DF84C00002818BFAAF12F
:100A1000020A4FF000098DF84C904E4607E09DF811
:100A20004C0020B100208DF84C00AAF1020A0E986B
:100A3000A0EB0900401E20F07F40411B0902CA17AD
:100A400001EB1261091251457EDB149705464FF008
:100A50000009069F01F09CFF281A0002C11700EB55
:100A600011604FEA202A02F021FDB0F5C67F08BFD1
:100A70000D200BD0A0F54070563808BF1C2005D0C3
:100A8000A0F500709F3814BF002032200B30824543
:100A900020DABBF1010F02D0149840B112E0B4F19A
:100AA000807F1CD140F6DE01702002F08BFEB4F195
:100AB000807F07D0601B0002C11700EB116000129D
:100AC000042804DD2C46204601F088FF07E00028BA
:100AD00063DC04E02C46204601F080FFB946B4F107
:100AE000807F55D00E980F9A001B121B20F07F407C
:100AF00022F07F42012850D3B0F5000F98BFB2F525
:100B0000000F4AD820460BF0B6FE0799524A0D1A3C
:100B10004FF0000AAA1A7AF1000218D34E4B421A7B
:100B2000D31A7AF1000312D34A4BAB423EBFC0F551
:100B3000902000F1F450451809D3934231D2C1F509
:100B4000902101F1F45100E027E008444542404F74
:100B5000B87F58B3BBF1010F05D0022002F07AF93B
:100B6000012002F077F9B0452CD2A5EB06014FF039
:100B7000020002F0B9F890B3B8F1000F1CBFA5EB6A
:100B80000801012034D000BF02F0AEF838B32FE0E6
:100B900040F6F111702002F015FE17B00020BDE8FC
:100BA000F08F40F6C221702002F00CFEB04534BF39
:100BB000304640461E30A842CCDB40F6052170206E
:100BC00002F000FE0CD9A5EB0801012002F08CF820
:100BD00028B1002E1CBFA91B022009D0D4E730E0A9
:100BE00056EA080004D040F64111702002F0EAFDF8
:100BF0002946002002F078F818B30698012600284C
:100C000004BF97F82B00002802D0B9F1000F33D0B1
:100C100097F82A0018B102F04FFC87F82AA0B9F122
:100C2000000F2CD00B98201A20F07F41052002F0F5
:100C30005BF8E0B397F82B00002808BF87F82B601B
:100C400025E00FE008050040380000205C0D002082
:100C50005C110020FF7F841E0040420F00C0BDF0E9
:100C60000080841E022002F0F5F8012002F0F2F864
:100C700017B00020BDE8F08F97F82A0090B197F8E0
:100C80002B0020B1052002F0E5F887F82BA0A5EB9A
:100C90000800A0F1190100290FDC40F62E21702078
:100CA00002F090FD02F024FC87F82A60B7E7FFE726
:100CB00040F2F221702002F085FD032002F014F8CA
:100CC000C0B10F488068C0F800A00E48C0F800A06E
:100CD0000CAC94E80F0038607960BA60FB6010AC2F
:100CE00094E80F0038617961BA61FB6117B00120A7
:100CF000BDE8F08F40F63621702002F063FD000061
:100D000038000020080500402DE9F05F064608780D
:100D10009074C87A5074887A10740889D081DFF88A
:100D2000988170689A46A0FB087914460D46306891
:100D30000BF0A1FDC11928784FEA680C49F10002B7
:100D4000A8F1010ECCF1000B68B1E089677CC043CB
:100D5000D5F8049004F10C0260455FDD4FF4AE61FC
:100D6000702002F02FFDDFF85491D5E9040311EB58
:100D7000090A42F10009B0EB0A0A73EB090945D2EE
:100D8000411A73EB020141D3C71B7068A06047454D
:100D900005D3401CA7F1F457A7F59027A060E08980
:100DA0006D68C143667C781804F10C02774504D95C
:100DB00040F26F51702002F005FD6145CEDC5945CF
:100DC0002FDB8045DCBF00F5F700A0F1F85005DD12
:100DD0000028BCBFA0F5F70000F1F850214601F053
:100DE0006DFC206820F07F417819401C2160002EA6
:100DF00008BF7A3003D0012E08BF483034D101F04B
:100E000041FC20F07F406060BDE8F09F3068401EEC
:100E100020F07F40206000F57A70F4E701465845E5
:100E200004DA40F27151702002F0CCFC8045DCBF46
:100E3000A1F1F450A0F5902005DD0028BCBF01F120
:100E4000F45000F59020214601F038FC2068002F76
:100E500020F07F4109F10100216008BF7A3008D0FD
:100E6000012F08BF483004D040F22461702002F006
:100E7000A9FC01F007FC20F07F4161607068A06070
:100E8000002122463068FFF77FFC32685346214636
:100E90002869FFF725FA002818BFBDE8F09FD4E9BC
:100EA00000213068891A20F07F42084420F07F40FA
:100EB000C4E90020BDE8F09F0080841E0040420F7E
:100EC00070B51E4D95F82D00202818BF70BD95F8FF
:100ED0002C2002EB4200284490F82040202C27D000
:100EE000174B03EB821101EB4401497880F8201085
:100EF000FF2085F8290085F82D402146022000F0CA
:100F0000CBF8002085F82800A8770E49C4EBC40070
:100F100001EB8000007E002808BF02F05FFE002089
:100F200009494968002908BF70BDBDE870400847FD
:100F30004FF44B71702002F045FC00005C11002062
:100F4000DC1000205C0D0020380000202DE9F05F4F
:100F5000DFF8C08098F82C5005EB4500404490F82D
:100F60002140202C08BFBDE8F09FDFF8ACB0DFF8CF
:100F7000ACA0AAF560790AEB8517072617F81400CC
:100F800001280ED0042808BF02260AD005280CBF6D
:100F90000326062805D040F6A8014FF0700002F0A5
:100FA00011FCBBF1000F18BFAFF30080EFF310800E
:100FB00072B607EB44014A7805EB4501414481F8DC
:100FC000212091F82220A24204BF202281F8222071
:100FD000C0B12A462146012000F05EF8C4EBC401EE
:100FE00009EB810059F8212040683146904798F874
:100FF0002C5005EB4500404490F82140202CBAD1FC
:10100000BDE8F09F0648002818BFAFF3008062B625
:10101000DFE700005C11002000000000DC10002071
:101020000000000010B5044600680BF024FC0246E6
:10103000E089217B144B0844411C50189A4204D982
:1010400040F26F51702002F0BDFB104A914204DD66
:101050004FF4AE61702002F0B5FB0D4A914204DA04
:1010600040F27151702002F0ADFB0A498142DEBFAF
:1010700000F5F700A0F1F85010BD0028BCBFA0F5A6
:10108000F70000F1F85010BDFF7F841E0040420FB2
:1010900000C0BDF00080841EDFF858C010B50023EA
:1010A0000CEB821C07281FD2DFE800F005050505C0
:1010B0000404040001230CF81100002B08BF10BD2C
:1010C00002EB42020C48024492F8220020280EBF94
:1010D00082F821100CEB4000417020200CEB410302
:1010E000587082F8221010BD4FF41A71702002F06F
:1010F00069FB0000DC1000205C1100202DE9F74F97
:101100001746DFF858A102EB47005044884690F894
:1011100020400129254618BFB8F1020F05D040F63E
:101120006C214FF0700002F04DFB4FF0000B202DB2
:1011300044D09AF81E000026002808BF022601F0BD
:1011400027FC474BC4EBC40103EB81018A68C968E3
:10115000121A091A22F07F4221F07F41964299BF6C
:10116000B2F5000FB1F5000F3E4A02EB871923D903
:10117000224609EB42014C78202C15D0C4EBC40167
:1011800003EB810CDCF80810DCF80CC0091A21F024
:101190007F41ACEB000C2CF07F4C8E429CBFB1F534
:1011A000000FBCF5000FE3D8202A05D03B462021D4
:1011B0000420FFF759F80446AC420FD19AF82E00EC
:1011C00020280FD00099DAF80800891C081A0002BC
:1011D000C11700EB11600012002803DD03B00020EE
:1011E000BDE8F08F202D16D02A4641460098FFF723
:1011F0001FFB00281FBF8AF82E50022003B0BDE855
:10120000F08F3B462A4620210420FFF72DF803B03B
:101210000020BDE8F08F9AF82A0018B102F04CF9CE
:101220008AF82AB09AF82B0020B1052001F012FEAE
:101230008AF82BB0042001F00DFE01F07BFE202087
:101240008AF82E0008488068C0F800B00748C0F847
:1012500000B003B00120BDE8F08F00005C11002059
:101260005C0D0020DC100020380000200805004044
:101270002DE9F04F694E07468DB096F82D0088464F
:10128000202855D096F82D0006F10804C0EBC000C8
:10129000A6F5806909EB800A20208DF8200096F8D9
:1012A0002C000AAA00EB4000304409A990F8205015
:1012B000F06802903068384401F000FADAF80C0067
:1012C0000999652F084438D3554A0021D21B71EB88
:1012D000010232D32268821A22F07F42B2F5000F57
:1012E0002BD820F07F406060304684F8108090F862
:1012F0002C000DF1200A202D1CBF4A4901EB801B58
:1013000050D000BFC5EBC50009EB80086168D8F874
:10131000086008F10800711A0902CA1701EB12618E
:1013200009122DD4C08900283CD0E08948B139E0A9
:101330004FF43361702002F045FA0DB00120BDE892
:10134000F08F20680C9002F0B1F8B0F5C67F08BFAE
:101350000D200BD0A0F54070563808BF1C2005D0DA
:10136000A0F500709F3814BF00203220411C0C985B
:10137000301A0002C21700EB12600012884211DA24
:101380008AF8005098F81810207C814205D80298FD
:1013900060600DB00220BDE8F08F0BEB4500457892
:1013A000202DAFD1052001F055FD1C4C4FF0FF3032
:1013B000606094F82C309DF820202021202A03D052
:1013C0000520FEF751FF04E003EB4300204490F8B2
:1013D000200094F82C20134901EB821194F82D2061
:1013E00001EB42014870206838442060FF2084F8F7
:1013F0002900607E012805D1E068401E20F07F4072
:1014000001F08CFB9DF82000202803D0064840788E
:1014100002F0ACFA0DB00020BDE8F08F5C110020A6
:101420000040420FDC1000203800002070B5244A34
:1014300092F82D1020293AD092F82D10A2F5806351
:10144000C1EBC10103EB810C92F82C1092F82C40F7
:1014500001EB4101114491F82010A2F1800505EB48
:101460008414202928D0C1EBC10503EB85052D7E0E
:10147000854284BF04EB41014978F2D8C1EBC10138
:1014800003EB8101DCF80C0089681468081A00027B
:10149000C11700EB1160001207D40BF0ECF904F156
:1014A0006501884224BF001B70BD002070BD40F65E
:1014B0000231702002F086F94FF0FF3070BD00005D
:1014C0005C110020C0EBC00170B50748074A00EB73
:1014D000810001690830A1FB0245FFF7A3FD001957
:1014E00045F1000170BD00005C0D00200080841EED
:1014F000F8B56B4D6B4A05F58064012694F82A1007
:1015000008287CD2DFE800F0047097A9C741AEB389
:1015100019B901F0EDFF84F82A60E08A10B102F0F9
:10152000D9F880B1FFF7CCFCFF2084F82700616870
:10153000B1F1FF3F03D0052001F0D6FB40B1607E42
:10154000012810D109E040F63401702002F03AF988
:1015500040F63901702002F035F9E068401E20F0B5
:101560007F4001F0DBFA94F82D0094F82D10C0EBC9
:10157000C00005EB80004068C1EBC10155F8212097
:1015800001B00121BDE8F040104794F82B0040B1B4
:1015900019B901F0ADFF84F82A60002084F82B000F
:1015A000F8BDFFF78DFC4FF0FF30606094F8270026
:1015B0008DF800009DF8000088B194F82D0094F893
:1015C0002D10C0EBC00005EB80004068C1EBC101ED
:1015D00055F8212001B00621BDE8F04010474FF436
:1015E0000561702002F0EEF8FFF76AFC84F82660CF
:1015F00002F070F820B194F82A0030B109E04AE016
:1016000040F65E01702002F0DDF801F071FF84F811
:101610002A6094F82D0094F82D10C0EBC00005EB63
:1016200080004068C1EBC10155F8212001B00021C4
:10163000BDE8F040104701F04DFDE08A10B102F026
:1016400049F828B101F05AFD002818BF6677F8BDA7
:1016500040F66801702002F0B5F813480660906803
:101660000660F8BD1078BDE8F84002F07FB9FFF7DA
:1016700027FC94F82D0094F82D10C0EBC00005EB6A
:1016800080004068C1EBC10155F8212001B005215F
:10169000BDE8F040104740F67B01702002F092F860
:1016A0005C0D002038000020080500402DE9F34FB4
:1016B0008246F04895B00068EF4DC005C00D0ED0D1
:1016C000103840B20028B8BF00F00F0000F1E02051
:1016D000ACBF90F8000490F8140D40090DD0169896
:1016E0004FF0000B0078002818BF012818D040F2F6
:1016F00004714FF0700002F065F895F82D004FF07E
:10170000010B202807D01698007848B14FF4E0610B
:10171000702002F057F840F2FD61702002F052F89C
:10172000D64C24B1002140F20770AFF300800020B6
:10173000CDE91000D249CAEBCA0001EB80004FF09E
:101740000109009024B1002140F21270AFF3008033
:10175000B9F1000F0AD000BF95F82C604FF00008D7
:1017600085F82980BBF1000F07D038E0C548002874
:1017700018BFAFF3008062B6EEE73746012020EADB
:101780000706C148402200EB871100EB86100BF0E2
:10179000CEF924B1002140F22F50AFF3008007EBC7
:1017A000470106EB4600294428440A8C028491F83C
:1017B000221080F8221024B1002140F23350AFF300
:1017C000008024B1002140F21C70AFF3008095F836
:1017D00029008DF808009DF808000028B2D124B136
:1017E000002140F22670AFF3008002A801F0D6F885
:1017F000DDE90201CDE90E01334609AA0EA81699CA
:10180000FFF782FA24B1002140F22D70AFF300807F
:101810009D4A0E9902EB861709A817F81A20012A8B
:1018200018BF022A38D1099A0A9BA2EB010222F0C2
:101830007F42A3EB0101CDF8448021F07F41022AD1
:1018400064D3B2F5000F98BFB1F5000F5ED84FF02A
:10185000010814AB13AA3146FEF7F4FE00285DD050
:101860009DF84C109DF8502033468A425AD00520EE
:10187000FEF7FAFC07EB4A0148709DF84C0020285F
:101880001CBF07EB400080F801A057D032465146FC
:101890005FF00300FFF700FC24B1002140F232703A
:1018A000AFF300807948002818BFAFF30080EFF352
:1018B000108972B624B100214FF4E760AFF30080C5
:1018C00095F829008DF808009DF8080000287FF49D
:1018D00039AF24B100214FF4E860AFF3008009AFC5
:1018E000009897E80E1000F10807B8F1000F87E89C
:1018F0000E100D99816153D024B1002140F24D703A
:10190000AFF30080BBF1000F3AD11FE032465146E1
:101910000420FFF7C1FB4FF00108BDE732465146F6
:101920000420B7E7202919BF07EB4100407806EBF8
:101930004600284408BF90F820009BE706EB4601CC
:10194000294481F820A0CDF844809FE7119810F039
:10195000FF0F15D095F82D00202811D124B10021BA
:1019600040F25270AFF30080324602210E98FFF72A
:10197000C5FB109020B916980078F0B101282BD043
:1019800024B1002140F26F70AFF30080FF20BBF163
:10199000000F18BF85F8290027D000BF4FF00108BD
:1019A00024B100214FF4F060AFF300801098384E5E
:1019B000022823D0012829D02DE024B1002140F2B3
:1019C0005A70AFF3008095F82C2051460420FFF7A1
:1019D00063FB4FF00108E3E7002C3FF4B3AE0021B6
:1019E00040F26570AFF30080ACE695F82C20012141
:1019F000914385F82C1085F82900CFE7A8680E9947
:101A0000401A0AF038FF716821B904E071684FF09C
:101A1000FF3001B18847B9F1000F24D024B1002173
:101A20004FF4F260AFF30080B8F1000F11D095F8D9
:101A30002C0000EB4000284490F82100202808D01A
:101A400024B1002140F29770AFF30080707801F06C
:101A50008DFF24B1002140F29C70AFF3008017B0DD
:101A60004046BDE8F08F0748002818BFAFF300805C
:101A700062B6D3E704ED00E05C1100200000000036
:101A80005C0D002000000000DC10002000000000C1
:101A9000380000202DE9F14FC9488AB00068C00520
:101AA000C00D11D0103840B20028B8BF00F00F00B0
:101AB00000F1E020ACBF90F8000490F8140D40094C
:101AC00008BF4FF0010B01D04FF0000B0A980078CF
:101AD00000281EBF00200BB0BDE8F08F4FF0000AB9
:101AE000B84DB94CD14625B1002140F2B950AFF301
:101AF000008094F82C6084F829904FF0000825B1FC
:101B0000002140F2BE50AFF30080BBF1000F23D1A3
:101B10003746012020EA0706AC48402200EB871137
:101B200000EB86100BF003F825B1002140F22F5096
:101B3000AFF3008007EB470106EB46002144204449
:101B40000A8C028491F8221080F8221025B100211D
:101B500040F23350AFF3008025B1002140F2C6506F
:101B6000AFF3008008A800F019FFDDE90801CDE916
:101B7000060133466A4606A80A99FFF7C5F825B15B
:101B8000002140F2CC50AFF3008094F82D002028C3
:101B900019D0E0680099091A0902CA1701EB12610D
:101BA000091210D5DDE90021891A20F07F4308448D
:101BB00020F07F40CDE90030934202D20298401CD1
:101BC00002904FF001084DB1002140F2DF50AFF319
:101BD0000080002140F2E550AFF3008000990698A4
:101BE000019A091A101A21F07F4120F07F40B1F5C7
:101BF000000F98BFB0F5000F03D8BBF1000F0CD158
:101C000003E0BBF1000F39D0C0E0334669467048AD
:101C1000069AFEF765FB48EA0008B8F1000F23D0EA
:101C200000980AF028FEBDF80E109DF80C20694BB4
:101C30001144491C4218984256D8654881427CDCC0
:101C4000404281427ADB581C9042DCBF02F5F70229
:101C5000A2F1F85205DD002ABCBFA2F5F70202F19D
:101C6000F8520A98C0E904294FF0010A002D7CD0EF
:101C700000214FF4BF60AFF3008087E00798029027
:101C8000BDF80E0008AA05A9DDF8188000F016FDC1
:101C900001F03EFA00F0F6FC074694F82D002028EB
:101CA00027D0E068401D20F07F4000BFDDE9002123
:101CB000891A0090084420F07F4001900098404528
:101CC00002D20298401C02901F208DF80C00009850
:101CD0000AF0D1FDBDF80E109DF80C203D4B1144CB
:101CE000491C421898422AD940F26F51702001F0E5
:101CF00069FDBDF80E0008F10906B0B101F0EAFC7B
:101D000098B901F0D3FBB0F5C67F08BF0D200BD00A
:101D1000A0F54070563808BF1C2005D0A0F5007013
:101D20009F3814BF4846322006440598874284BF36
:101D3000381A064426F07F40B8E703E00AE024485A
:101D4000814204DD4FF4AE61702001F03BFD22487A
:101D5000814204DA40F27151702001F033FD1F48D6
:101D60009042D8BF02F5F70200E00FE0D8BFA2F121
:101D7000F85205DD002ABCBFA2F5F70202F1F852C5
:101D80000A984FF0010AD046C0E904291AEA080F60
:101D900009D00A981149029BD0E90420E3FB0120F5
:101DA0000A99C1E9042094F829008DF814009DF8DF
:101DB000140000287FF497AE0BB05046BDE8F08FBA
:101DC00004ED00E0000000005C110020DC100020A9
:101DD0000040420FFF7F841E00C0BDF00080841EC3
:101DE0002DE9F14F944D8CB095F82C00002009900E
:101DF00006900120A5F180094FF0000807468F4C9E
:101E0000CDF81C0000F0C4FD089024B100214FF46F
:101E1000F660AFF30080079800283CD085F8298051
:101E200024B1002140F2B570AFF3008095F82CA0EA
:101E3000402227EA0A0609EB861009EB8A1183463D
:101E40000AF075FE24B1002140F22F50AFF300805C
:101E500006EB46000AEB4A012844294400900A8C0C
:101E6000028491F8221080F8221024B1002140F25F
:101E70003350AFF3008095F829008DF808009DF8E5
:101E8000080078B1002C1CBF002140F2BB70B9D013
:101E9000AFF30080B6E76A48002818BFAFF30080B0
:101EA00062B6BBE724B1002140F2BF70AFF30080FF
:101EB0000C981BF8100003287DD1009A0C9992F819
:101EC0002000884214BF4FF0000A4FF0010A02F1CF
:101ED000200C8346202209EB861303E0024603EB25
:101EE00042004078884202D020280AD0F6E7202815
:101EF00007D0834507D103EB4B0040788CF80000F6
:101F000007E040460CE003EB400003EB4201407861
:101F1000487024B1002140F29A40AFF30080384667
:101F2000C34610EA0A0F18BFBB4600284FD024B1A1
:101F3000002140F2C470AFF30080324601200C99BA
:101F4000FFF7AAF824B1002140F2CD70AFF3008072
:101F50003C48002818BFAFF30080EFF3108072B642
:101F6000079024B1002140F2D270AFF3008095F8C1
:101F700029008DF808009DF8080038B1002C1CBF1E
:101F8000002140F2D6703FF43DAF81E7BBF1000F76
:101F90000AD095F82D00202806D132460221089853
:101FA000FFF7ACF80690F8B124B1002140F2EA70D6
:101FB000AFF3008000E00AE095F82C0027EA00006B
:101FC00085F82C00FF2085F829000120099024B114
:101FD000002140F2F370AFF3008006981A4E0228F9
:101FE00009D001280FD013E094B1002140F2E57030
:101FF000AFF30080ECE7A9680898081A0AF03BFCE8
:10200000716821B904E071684FF0FF3001B1884771
:10201000079848B124B1002140F60700AFF30080D3
:1020200009980DB0BDE8F08F0548002818BFAFF340
:10203000008062B6EEE700005C11002000000000A6
:1020400000000000000000003800002010B520282B
:1020500011D20E4991F82C30A1F1800202EB831CC1
:102060001CF810303BB191F82C3002EB831212F8BF
:102070001020012A01D0002010BD91F82C2001462B
:102080000020FFF709F8012010BD00005C110020BE
:102090002DE9F84F864E804696F82C00A6F1800771
:1020A00007EB801010F81800002871D096F82C90DB
:1020B000804D25B1002140F67630AFF3008007EB6C
:1020C000891414F81800012818D0C0B204281CBFC5
:1020D0000528062861D02DB14FF0000140F682306E
:1020E000AFF3008001F098FC25B1002140F6863066
:1020F000AFF3008014F818000128E6D1012425B1BF
:10210000002140F68D30AFF30080002C4BD0002032
:1021100086F8290025B1002140F69230AFF3008007
:1021200096F82CB0012020EA0B0907EB8B1107EB86
:10213000891040220AF0FBFC25B1002140F22F500B
:10214000AFF3008009EB490000EB060A0BEB4B00F4
:102150003044018CAAF8201090F822008AF822005E
:1021600025B1002140F23350AFF3008096F82900EA
:102170008DF800009DF80000E0B1002D1CBF00218B
:1021800040F69830BBD000BFAFF30080B7E7FFE761
:1021900040F66D31702001F015FB4A4641460120A2
:1021A000FEF77AFFA0E74448002818BFAFF300808D
:1021B00062B6ACE725B1002140F69C30AFF3008059
:1021C0009AF821300AF1210140461C464FF0200BBD
:1021D00007EB89120AF1220A04E0A34602EB4B0C3A
:1021E0009CF80140844202D0202C2BD0F5E7202C13
:1021F00028D0A34204D102EB43004078087005E0E8
:1022000002EB440002EB4B0140784870BAF1000F3A
:1022100011D025B1002140F29240AFF300809AF82E
:102220000000A04207D125B1002140F29540AFF354
:1022300000808AF800B05DB1002140F29A40AFF30F
:10224000008000E025B100214FF43A60AFF3008038
:102250001A48002818BFAFF30080EFF3108472B65D
:1022600096F829008DF800009DF8000038B1002D87
:102270001CBF002140F6A6303FF441AF84E786F84A
:102280002C90FF2086F8290054B1002D08BFBDE82E
:10229000F88F002140F6B330AFF30080BDE8F88F2F
:1022A0000548002818BFAFF3008062B6EDE70000D4
:1022B0005C11002000000000000000000000000091
:1022C00070B50D46064601F0F3F90F4890F82C2042
:1022D0000024803800EB821010F8141029B1611C22
:1022E000CCB2202CF8D3202070BD0848C4EBC40128
:1022F00040F8216000EB8100214645600120FEF797
:10230000CBFE204670BD00005C1100205C0D00205B
:102310002DE9F84F00F03CFB054600F00BFE604C49
:102320006068B0F1FF3F1CBF4FF0FF306060A07FDE
:102330005C4F90B9D4E90210401A20F07F404FF46E
:102340000C710AF0C5FAE1680844281A0002C117A6
:1023500000EB11600012C00F12D0607E20B394F821
:1023600027008DF800009DF80000E8B100F03EFC69
:1023700094F82800F0B140F2D531702001F022FA33
:1023800094F82D0094F82D10C0EBC00007EB8000EE
:102390004068C1EBC10157F821200821904740F265
:1023A000BD31702001F00EFAE81C20F07F4000F0F3
:1023B00015FBDDE7012084F8280094F82D00202883
:1023C00021D094F82D90202084F82D0084F82E0040
:1023D000002684F8266084F82760266000F09EFEC0
:1023E000207794F82C8008EB480000EB040A9AF858
:1023F0002000202812D0C0EBC00007EB8000817EB7
:10240000012905D00AE04FF47671702001F0DAF965
:1024100000F1080201212846FEF7B6F942460121E3
:102420002846FEF76BFE0700F8D01F4800EB881027
:1024300010F81900022804D1424649460620FEF74A
:102440002BFEFF2084F829009AF82100DFF85C8039
:1024500020281CBF98F8010001F088FA207F18B1ED
:1024600000F038FE26776677022F0FD0012F18BFB5
:10247000BDE8F88F4FF0FF30D8F80410002908BFEE
:10248000BDE8F88F01B0BDE8F04F0847A068401BD9
:102490000AF0F1F9D8F804100029F3D1BDE8F88F5B
:1024A0005C1100205C0D0020DC10002038000020B2
:1024B00030B5364C054683B094F82D00202808D05E
:1024C0006068B0F1FF3F09D040F6A121702001F013
:1024D00079F94FF42A61702001F074F994F82D0015
:1024E0002B49C0EBC00001EB80000830FEF79AFDDD
:1024F0000146284A2844914204D940F26F51702085
:1025000001F060F924498D4204DD4FF4AE61702082
:1025100001F058F921498D4204DA40F271517020DE
:1025200001F050F91E498142DCBF00F5F700A0F12F
:10253000F85005DD0028BCBFA0F5F70000F1F85009
:1025400001AA694600F0BAF89DF804000F288CBF74
:10255000012000200099084420F07F41616094F838
:1025600027008DF800009DF80000002804BF03B08C
:1025700030BD052000F0B8FB00281CBF03B030BD03
:1025800040F6A821702001F01DF900005C11002028
:102590005C0D0020FF7F841E0040420F00C0BDF094
:1025A0000080841E70B51C4C202184F8201084F813
:1025B000211084F82210002084F82C0084F82D10BB
:1025C000421EC4E90002A07784F8260084F82700A0
:1025D0002077607784F82E1084F82A0084F82B0086
:1025E000A4F182011022887001F8040F521EFAD162
:1025F00000F09EFD094D012684F82860FF20287018
:10260000074801F095F9687001F0F0F9A86000F052
:1026100019FD84F82F6070BD5C1100203800002087
:102620004D0F000070B50546012000FA05F40E4676
:10263000002A08BF08480CD0002000F0E9FCE9009F
:1026400001F1804101F5F831C1F81005C1F81465B8
:102650000248046070BD000008F5014004F5014027
:1026600000B583B0684600F099F900980AF003F9C4
:10267000019A034B0021E2FB030103B000BD0000FF
:102680000080841E410B48F2376251430A0C094B0B
:10269000510202FB03020848504300F586306E30B9
:1026A000400D5B4210FB03F3B2EB532F88BF491C74
:1026B00008447047F7C2FFFF6F0C0100430B48F25C
:1026C000376C03FB0CF330B41B0CDFF844C05C0226
:1026D00003FB0C030F4858434FEA505C04EB0C001B
:1026E00043F609541CFB04F404F5807C43F60855BA
:1026F000A3EB5C2C2C440CF0FF0CB3EB542F84BFE9
:102700004FF0000C401C086082F800C030BC7047DD
:10271000F7C2FFFF6F0C01002DE9F0413B4DD5F8EA
:102720000403DFF8EC8010F4803F4FF400664FF0B4
:10273000E0274FF0000419D036480068B0B1C5F862
:102740004041C7F88062D5F84005D8F80010401A1B
:1027500020F07F40022802D3B0F5000F06D94FF4D5
:102760008030C5F808030420FEF7C2FED5F8040344
:1027700010F4003F1AD028480068B8B1C5F84441A9
:10278000C7F880622548D0F84005D8F80010401AF4
:1027900020F07F40022802D3B0F5000F06D94FF495
:1027A0000030C5F808030520FEF7A2FED5F80403A3
:1027B00010F4802F1AD01A480068B8B1C5F8484103
:1027C000C7F880621748D0F84005D8F80010401AC2
:1027D00020F07F40022802D3B0F5000F06D94FF455
:1027E0008020C5F808030620FEF782FED5F8040114
:1027F000002808BFBDE8F081C5F80441C7F8806231
:102800000948C168491CC160BDE8F08100B00040C2
:1028100004B5004040B1004044B1004004B0004065
:1028200048B1004008B00040440000202DE9F041CC
:10283000384D2878042868D0A81C0122017859B1A5
:10284000012908BF6A7002D06978002958D0022196
:102850000170407800F0FEFA2F4CD4F804034FF0DA
:10286000000810F4002F4FF480774FF0E0260AD0D4
:102870002A48006838B1032000F0ECFAC6F88072EC
:102880000320FEF735FED4F8040310F4802F0AD09D
:102890002348006838B1022000F0DCFAC6F88072E4
:1028A0000220FEF725FED4F8040310F4003F0AD0FE
:1028B0001C48006838B1012000F0CCFAC6F88072DC
:1028C0000120FEF715FED4F8040310F4803F08BF82
:1028D000BDE8F08114480068002808BFBDE8F08119
:1028E000002000F0B7FAC6F8807204202870C5F8FE
:1028F0000480C4F80082BDE8F0410020FEF7F8BD76
:1029000040F29F416C2000F05DFFBDE8F0410720E0
:10291000FEF7EEBD44000020008000404C810040E6
:102920004881004044810040408100400122110262
:102930004FF0E0230020C3F8801103F5C073BFF30C
:102940004F8FBFF36F8FC3F800110E4941F8042F6A
:10295000431EC1F80433C1F83C05C1F83C010A4BE1
:10296000C3F84005C1F840011B1DC3F84005C1F87C
:1029700044011B1DC3F84005C1F84801CA60034962
:1029800048707047008000400480004044000020F0
:10299000014800687047000004B5004030B4EFF310
:1029A000108C72B600250B4B0B4A00BFD3F80415F0
:1029B000D3F804412CB1D168491CD160C3F804514B
:1029C000F4E7D268BCF1000F00D162B6C0E9001292
:1029D00030BC704700B00040440000202DE9F047B3
:1029E000464E0546B71E3378B968012B04BFA9428D
:1029F000BDE8F0874FF04040414A1060424A4148EC
:102A0000C2F8080302F1040C4FF00004002B62D05E
:102A10003E48C2F84803CCF84045C2F8444100BFE4
:102A2000D2F848014FF0E0294FF00108002801BF1B
:102A3000D2F8040100284FF40060C9F880024FF476
:102A40008030C2F80803C2F84803C2F84041304859
:102A5000D0F800C0A5EB0C0C2CF07F4CBCF1020FA1
:102A600044D3BCF5000F41D8C2F840554FF4803C28
:102A7000C2F844C32BB102688A1A22F07F42022AAC
:102A8000F9D3C7F804803C70FFF750FF2148D0F815
:102A9000041564F30101C0F80415D0F808250221DB
:102AA00061F30102C0F808250421C0F81015C0F830
:102AB0000C807968C0F800128015C9F88002C9F846
:102AC00000011549C00508600420BD60707086F8DB
:102AD0000080BDE8F087C2F84803C2F84045C2F85C
:102AE0004041CCF84045C2F8444199E70020C2F883
:102AF000400540F293216C2000F064FE4600002067
:102B000008F50140FDFFFBFF00B00040FDFFFAFFAC
:102B100004B500400080004004F5014070B52A4C27
:102B2000A168814214BF01220022DFF8A0C09CF8F6
:102B30000050022D02D0002A34D002E0002A08BF43
:102B400070BD62789AB3224B4FF080421A60214BDD
:102B50009213C3F80823C3F848230022C3F8402186
:102B60001D4A1668861B26F07F46022E24D3B6F532
:102B7000000F21D8C3F840054FF48036C3F84463F2
:102B80002DB11368CB1A23F07F43022BF9D3134BDB
:102B900002214A071A60A06004208CF801008CF81A
:102BA000001070BD40F2A1216C2000F00BFE40F23D
:102BB000A5216C2000F006FE0020C3F8400540F27D
:102BC000B1216C2000F0FEFD4400002046000020F2
:102BD00008F5014000B0004004B5004004F5014094
:102BE0000148806870470000440000202DE9F04152
:102BF0003648354AC0F80823DFF8D4C0031D002149
:102C00009CF8004084B1334AC0F84823C3F840150B
:102C1000C0F84411D0F848210123002A04BFD0F89D
:102C20000401002811D10AE0C0F84823C0F840157B
:102C3000C0F84011C3F84015C0F84411EAE74FF05E
:102C4000E0224FF40060C2F88002022C04D040F26F
:102C5000BD216C2000F0B6FD1F4E30681F4CC01C1B
:102C600020F07F40A2681E4D90420BD03768D71BE2
:102C700027F07F47042F05D3B7F5000F02D8FFF7E1
:102C8000ADFE1BE03068101A20F07F40022813D3FD
:102C9000B0F5000F10D8134A4FF080401060636009
:102CA00021706B60EB604000111F086004208CF8FD
:102CB00001008CF8003001E0636021706068C5F8A5
:102CC0000002BDE8F0810000FDFFFBFF00B0004006
:102CD00046000020FDFFFAFF04B50040440000203C
:102CE0000080004008F501402DE9F041544A0025DC
:102CF000012492F800C053784FF4A07607287DD2C3
:102D0000DFE800F004040404585858004D4A97685E
:102D1000B7F1807F04BF5278002A03D0BCF1020FC4
:102D200005D026E040F24D316C2000F04BFD1A1F1B
:102D3000D2B206EB820202F1804606F5304600224E
:102D4000BCF1010F03D0BCF1020F08D00EE0042B40
:102D500024BF3768002F08BF4FF0004206E0042B65
:102D600024BF3768002F08BF42F0804212F0804F26
:102D7000E5D1DFF8D4C000F1100204FA02F2CCF879
:102D800008234FF0400303EB8003DBB263441C6075
:102D90000CEB8000D0F84035A1EB030323F07F4318
:102DA000032B26BFC0F84015CCF80423C0F84055CB
:102DB00037D23CE0BCF1000F06D0834204D140F290
:102DC0006D316C2000F0FEFC021FD3B2032B04D344
:102DD0004FF4E4716C2000F0F5FCDFF870C003F1F3
:102DE000100204FA02F2CCF80823CCF8482306EBD0
:102DF00083034CF80350164B1B6800E01AE0001FD9
:102E0000CB1A23F07F43C0B20CEB8000022B0BD314
:102E1000B3F5000F08D8C0F84015CCF80423CCF85F
:102E200044230120BDE8F0810021C0F840150020B6
:102E3000BDE8F08140F271316C2000F0C3FC00006D
:102E400046000020440000200080004000B0004008
:102E500004B500402DE9F843012600274FF4A0787F
:102E6000072851D2DFE800F00404040419191900FE
:102E700000F1100106FA01F22649C1F8082301EB1E
:102E800080030022C3F8402508EB80028F502249BE
:102E900051F820000090BDE8F883204D011FCCB20E
:102EA000297879B16A7882420CD11D4A4FF04040AE
:102EB0001060012908BFFFF739FD2F7019494FF045
:102EC00080708860184904F1100006FA00F0C1F81B
:102ED0000803C1F84803A0000844D0F84005134A8D
:102EE0001268801A20F07F40022807D301EB840289
:102EF0000020C2F8400508EB84000F500C4850F841
:102F000024000090BDE8F88340F2F5316C2000F019
:102F100059FC000000800040408100404600002035
:102F200008F501404400002000B0004004B5004016
:102F300040B100402548244AC0F808232449031D15
:102F400091F800C00021BCF1000F10D0214AC0F858
:102F50004823C3F84015C0F8441100BFD0F84821F9
:102F6000002A04BFD0F80401002811D10AE0C0F8FB
:102F70004823C0F84015C0F84011C3F84015C0F808
:102F80004411EBE74FF0E0224FF40060C2F88002FA
:102F900011484FF0FF32C0F80823C0F84015C0F8C0
:102FA000401100F10402C2F84015C0F8441102F1CA
:102FB0000402C2F84015C0F8481102F10402C2F838
:102FC0004015C0F84C117047FDFFFBFF00B00040FA
:102FD00046000020FDFFFAFF0080004010B50728E2
:102FE0000DD2DFE800F004040404060606000649DA
:102FF00002E0001F0549C0B201EB800010BD40F2A5
:1030000095316C2000F0DEFB4081004040B1004073
:1030100010B507280DD2DFE800F00404040406060A
:103020000600064902E0001F0549C0B201EB80001E
:1030300010BD40F295316C2000F0C4FB408100408F
:1030400040B1004070B51F48002404210470801E68
:1030500001708905C4608160FFF768FC01254FF0AD
:10306000E02CEB02CCF88031BFF34F8FBFF36F8FB2
:10307000CCF8803214484560856014490A68002AFB
:10308000FCD1511EC0F80813C0F84813C0F84045E1
:10309000C0F840410E49C1F84045C0F84441091DFF
:1030A000C1F84045C0F84841C0F80441CCF80031AF
:1030B00005604FF48271C0F844130221C0F8041374
:1030C00070BD00004600002000B0004004B5004084
:1030D00004B00040084890F900000028B8BF7047CD
:1030E00000F01F01012202FA01F14009800000F105
:1030F000E020C0F8001270477404002003480078F4
:1031000003280CBF0120002070470000600400204D
:1031100001484088704700006004002003480078A0
:10312000022816BF032801200020704760040020F9
:1031300002480021017041807047000060040020B7
:103140002DE9F041164C607A002827D04FF48071A9
:103150008D05284609F0E0FB80464FF48271284631
:1031600009F0DAFB00260746B8F1000F09D001206C
:10317000C5F80803207920B12671E06908B18047BD
:10318000E66137B1C5F804610220C5F8080300F014
:103190004DFA4046BDE8F04100F058B8BDE8F08176
:1031A0005400002010B509F061FC30B909F07FFC33
:1031B00018B909F0B2FC002802D0024902200860C8
:1031C00010BD0000340C004070B500F091F900F023
:1031D00081FA094C4FF0804530B1FFF7E3FF012041
:1031E00028610420A07204E00320A0720120C5F829
:1031F00004030020E07170BD5400002070B5124C33
:10320000A079E0B1E179401E814218DA00F062FA5B
:10321000054600F04BFBA179012902D9E179491C4F
:10322000E1710DB1616900E02169411A022902DAF8
:1032300011F1020F07DC0DB1606100E02061BDE813
:103240007040FFF7C1BF70BD540000202DE9F0476A
:1032500006464FF080454FF48671284609F05CFB26
:1032600080464FF48871284609F056FB274C824669
:10327000277804F1080009F0C3FB10B140F2B9113E
:1032800016E04FF0010946B1A07A032805D10420C9
:10329000A072FFF787FFC5F810900026B8F1000F65
:1032A00018D0C5F80C61A07A042804D040F2CB11E4
:1032B0006D2000F087FA09F0D9FB28B909F0F7FB77
:1032C00010B909F02AFC08B1114806600220A0726A
:1032D00000F0F2F8BAF1000F08D0C5F81061A07A3A
:1032E000022801D1FFF78AFFC5F814903FB126707C
:1032F000A07A022801D1FFF767FF00F0DDF8BDE8F2
:10330000F0470248083009F092BB0000540000204A
:10331000340C00402DE9F0475F4C00270646A761BA
:10332000427881780078E0726271A171E7714FF0A4
:1033300001084FF08045052825D2DFE800F0100392
:1033400006202200C4F8188009E000F0D1F801211D
:10335000284609F0E6FA0028F9D00220A06109F019
:103360000CFBB0B100F0D0F9217E01F003018842DE
:103370000FD1B07950B10220C5F8040370E047487E
:10338000ECE74748EAE740F23A314DE000F090F9C7
:1033900066E0C5F80C804FF4827AC5F80471A06924
:1033A000C5F8180509F04EFB40B909F055FB28B9DE
:1033B00009F069FB10B909F07AFB38B14FF0805081
:1033C000D0F844023749C0F34230086009F03AFBB4
:1033D00040B909F041FB28B909F055FB10B909F0D3
:1033E00066FB18B12F491031C1F80080C5F808807C
:1033F0000220C5F80403B07990BBD5F8040310F09F
:10340000020F0FD0DFF8A090D9F80010C94341F3A4
:10341000001101F10108D9F8001041F01001C9F8BC
:10342000001007E040F2FB216D2000F0CBF900BF57
:1034300000F0F2FA5146284609F06EFA0028F7D05B
:1034400000F036F9B8F1000F05D1D9F8001021F0DD
:103450001001C9F800100220C5F80803C5F804716E
:10346000A07970B1307860B900F034F9064600F008
:103470001DFA6FF0004116B1C4E9041001E0C4E97F
:1034800004010121284609F04CFA08B100F01CF9AA
:10349000A772BDE8F0870000540000200100020080
:1034A000010003003C05004010ED00E00148C08928
:1034B000704700005400002010B5EFF3108472B67E
:1034C0000A48417829B14178491E4170417829B1B3
:1034D00008E04FF48E716D2000F074F9807808B91F
:1034E00000F006F9002C00D162B610BD5400002097
:1034F00010B5EFF3108472B606484178491C41704C
:103500004078012801D109F023FA002C00D162B6DD
:1035100010BD000054000020054810B5C17821B14D
:1035200000210171C170FFF7C7FF002010BD00002E
:103530005400002070B50C4CE17861B90125E570AC
:10354000E061FFF7D5FF00F0C5F830B1E06910B1D8
:1035500080470020E061002070BD4FF08040257161
:10356000C0F80453F7E70000540000202DE9F041B3
:1035700005006FF015003FD0297804293CD80029B8
:1035800069783BD0002937D1A978002934D10020AF
:1035900009F08DF9002009F07DF94FF080484FF0D7
:1035A000FF31C8F808130026C8F80061C8F80461A4
:1035B000C8F80C61C8F81061144C6670A888A08126
:1035C00009F0BDF9012708B1E77067700121404695
:1035D00009F0A7F908B100F077F840F2F550E08162
:1035E0002846FFF797FE6772002009F053F94FF065
:1035F000E0213046C1F80071BDE8F0810029FBD020
:103600002029F9D8A9782129C1D9F5E7540000204B
:103610000148808970470000540000200248807AE9
:10362000002800D00120704754000020F8B51F4D3D
:10363000E87A00280FD1287E00F0030009F08DF908
:10364000002808D0EFF3108172B6FFF7E7FF18B13A
:10365000002900D162B6F8BD0126AE7201B962B68A
:1036600018204FF08044C4F80803A6614FF420707E
:10367000ADF80000BDF80000411EADF80010F9D211
:103680000027C4F80C71C4F810710848083009F01C
:10369000CAF92F70FFF798FD6661687900F07F0026
:1036A000C4F838051820C4F80403F8BD54000020FD
:1036B00010B5044C207E00F0030009F04EF90028FC
:1036C000F8D010BD54000020014901200870704757
:1036D000750400204FF08040D0F8000118B903486D
:1036E0000078002800D001207047000075040020F9
:1036F0004FF08040012141600021C0F800110148D5
:1037000001707047750400200248006800F0030053
:10371000704700001C04004010B531B1012907D0EA
:1037200040F2023105A000F021F8D0F8140401E0C5
:10373000D0F8080400F0010010BD00006E72665F52
:10374000636C6F636B2E6800BFF34F8F0548016891
:10375000054A01F4E06111430160BFF34F8F00BFE0
:10376000FDE700000CED00E00400FA0572B6034A24
:10377000526802B19047FFF7E7FF00007400002095
:10378000064810B50021016001210160084609F0DA
:103790000BF9BDE81040012009F0F9B8FC1F00400A
:1037A000074810B501214160891EC0F808130C209C
:1037B00009F0FAF8BDE810400C2009F0E8B8000064
:1037C00000C000400EB572B60F4A5568D5B1002250
:1037D00003466E460A2403E0B0FBF4F0521CD2B25A
:1037E0000028F9D1B05409E0B3FBF4F004FB103029
:1037F000B3FBF4F3521ED2B23030B054002AF3D1EE
:103800003046A847FFF7A0FF740000202DE9F041E3
:10381000184C0646174660780D4618B14FF0FF3039
:10382000BDE8F081FCF78CFC06B9134E676025708B
:10383000FFF7A6FFFFF7B4FF3046FFF797FE06003D
:10384000EED1FEF7AFFEFFF7F1FE08F0F7FF2846D6
:1038500009F09DF80120002D09DB05F01F0100FA99
:1038600001F16A09920002F1E022C2F800116070D1
:103870003046D5E774000020CAC9000001484078EE
:103880007047000074000020074890F900000028ED
:1038900009DB00F01F02012191404009800000F186
:1038A000E020C0F800127047740000202DE9F041BC
:1038B00001264FF0E02231034FF000084046C2F8E5
:1038C0008011BFF34F8FBFF36F8F164CC4F8000108
:1038D0000C2009F088F8144D2868C04340F3001705
:1038E000286840F010002860C4F8046326607F1C3C
:1038F00002E000BF00F090F8D4F800010028F9D0F1
:103900001FB9286820F01000286008480568666024
:10391000C4F80863C4F800810C2009F064F8284654
:10392000BDE8F08100C0004010ED00E008C5004097
:1039300010B5024605200C4904E000BF01EBC003AE
:103940001B7933B1401EC0B2F8D248216920FFF77D
:1039500039FF41F8302001EBC00100224A718A7121
:1039600001220A7110BD00008C11002010B505283D
:1039700001D3582106E00A4901EBC0000179012971
:1039800003D059216920FFF71DFF41798279491C35
:10399000C9B28A4200D04171BDE81040FFF774BF40
:1039A0008C11002070B505250E4E0F4C16E02178C5
:1039B00006EBC1000279012A08D1427983799A4243
:1039C00004D04279827156F8310080472078401C3B
:1039D000C0B22070052801D3002020706D1EEDB20A
:1039E000E5D270BD8C1100207604002000B509F0EE
:1039F00029F840B909F030F828B909F044F810B9AD
:103A000009F055F808B1024800BD024800BD0000A9
:103A10000C05004000E7014010B509F048F830B34C
:103A2000EFF31080C8B1002172B612480268036833
:103A3000C2F3001243F0100303604FF0E023D3F809
:103A40000042D3F804321C4300D040BF20BF00BF67
:103A500000BF00BF00BF12B105E00121E4E702682A
:103A600022F010020260002900D062B610BD20BF13
:103A700010BD000010ED00E00149096889680847A1
:103A80007C00002001490968096908477C00002082
:103A900001480068406800477C000020014909682F
:103AA000096808477C000020F7CC0000EFCC00003C
:103AB000E3CC0000F3CC0000EBCC000070B50E4C62
:103AC0006078002817D120780025012806D102202F
:103AD0002070206910B12069804725612078032873
:103AE00009D125702069002805D0606840698047A9
:103AF00020698047256170BD8000002010B5084C0A
:103B00002078022802D02078032802D160688068DB
:103B100080470020A0706070BDE81040FFF7CEBF66
:103B20008000002002480078002800D00120704763
:103B30008000002038B50446052804D340F23D112A
:103B40006820FFF73FFEFFF7B9FF104D01206870B6
:103B50002878022816D16868C168204688470C4931
:103B600001EB4402527882420DD3A87801280AD092
:103B700011F814008DF800008DF8014068680168A4
:103B80006846884738BD0120F4E700008000002027
:103B9000D014002005490A78022A04D00A78032AA2
:103BA00001D000207047496809690847800000205B
:103BB00010B558B108490A78022A02D00A78032AB7
:103BC00009D149684968BDE81040084740F25311DF
:103BD0006820FFF7F7FD10BD80000020014901209B
:103BE000887070478000002005480178022904D0C1
:103BF0000178032901D000207047406880690047A0
:103C0000800000201BCD000053CD00003DCD000002
:103C10002BCD000037CD000025CD000019CD0000D0
:103C200017CD00004FCD000043CD000031CD000086
:103C30001FCD000011CD000009CD00000DCD00000A
:103C400003CD000001480068006800479400002090
:103C5000014800684069004794000020014A12684A
:103C6000D26810479400002001490968C96A0847D2
:103C7000940000200148006800690047940000207B
:103C8000014A1268926810479400002001490968AF
:103C9000496A08479400002001490968896A084771
:103CA00094000020014B1B685B68184794000020BB
:103CB0000148007870470000770400201FB5144CBD
:103CC000207A8DF80100E0798DF80000A079ADF838
:103CD00004006079ADF80200684606F087FB08B181
:103CE000832110E0E068029002A806F095FB08B17D
:103CF000872108E007480068039003A80BF07EF9CD
:103D0000002803D08B21032000F058F91FBD0000CC
:103D1000B4110020704000007CB5044600680D46D8
:103D200000F1030020F0030020604FF0000000903D
:103D3000019008788DF8010048788DF802008878A5
:103D40008DF80300C8788DF80400287916008DF8E6
:103D5000050001D0002000E02068694600F008FB63
:103D6000216808442060A97841B16B8AEA7806B1DD
:103D7000002000F02FFD2168084420601948C17818
:103D800079B1297C69B1007908B1FF2200E02522D0
:103D90000EB1002000E0206800F0A6FD2168084474
:103DA0002060287968B12068C01C20F003002060E2
:103DB0002A7D297906B1002006F07CFD216808449F
:103DC0002060687D00280CD02068C01C20F0030013
:103DD0002060697D06B1002000F0B6FD216808442E
:103DE00020607CBD9800002010B528B11422044941
:103DF00008F09DFE002010BD6FF0150010BD000002
:103E00008C40000070B510B16FF02C0070BD304CCC
:103E1000607810B14FF0FF3070BD21B36FF0150026
:103E2000002AF9D02B4B0C29F6D2DFE801F0060767
:103E30000A0D1D202C3426373A3FEDE71078187014
:103E400038E01078587035E091780029E4D0D178C6
:103E50000029E1D011781B29DED351781B29DBD34F
:103E60001068C3F8050025E01068D86022E01178DA
:103E7000DA789142D0D399701CE011789A78914207
:103E8000CAD8D97016E0E17811B111780229C3D3EC
:103E9000107818740EE0108858820BE010781871B2
:103EA00008E011780229B7D3197503E011780829C1
:103EB000B2D8597501220749002008F064FFB0F517
:103EC000803F02DB6FF00B0070BD0121A17070BD5F
:103ED00098000020B411002070B50C46050019D0E0
:103EE000C4B100F007F9C0B12846FFF721FD0C4D21
:103EF00000220C492870204608F045FF0BF062FCB8
:103F00000021287806F044FCFFF7D8FE01206870F5
:103F1000002070BD6FF0150070BD4FF0FF3070BD18
:103F200098000020B411002030B587B005000CD0F7
:103F3000FFF7A4FC4FF0FF3420B1FFF769FBB0F5A9
:103F4000FA7F05D9204607B030BD6FF01500FAE7BB
:103F5000154C1648A56000F0F5F900206070A070BF
:103F6000E070207101461822684608F05AFE1822B7
:103F70000F49684608F0DBFD182269460D4808F035
:103F8000D6FDEFF3108472B66FF00C0000F01EFD4A
:103F9000094800F0E9FD18B19E21032000F00EF859
:103FA00004B962B60020CEE798000020BD3C0000B6
:103FB00074400000B4110020214100000EB572B61B
:103FC000154A9568DDB1002203466E460A2403E0D7
:103FD000B0FBF4F0521CD2B20028F9D1B0540AE080
:103FE000D8B2B0FBF4F7B3FBF4F304FB1700521E96
:103FF000D2B23030B054002AF2D13046A847BFF3D5
:104000004F8F06480168064A01F4E06111430160E0
:10401000BFF34F8F00BFFDE7980000200CED00E0DC
:104020000400FA05074810B581784278114302D0A0
:104030004FF0FF3010BD0121C170017106F0D4FBBB
:10404000002010BD98000020084810B58178407805
:10405000014302D04FF0FF3010BD0BF0C5F80BF05C
:10406000F9F80BF0E5F8002010BD000098000020E2
:104070000100000001010100001B1B030200000001
:104080004C1D000003001F0002000000295C92F19B
:10409000368192D1B7A9F0F199E94C191F23834ACF
:1040A000054A10B5526812B1BDE810401047922180
:1040B0000420FFF783FF0000CC110020054A10B553
:1040C000126812B1BDE8104010478C210420FFF7A0
:1040D00075FF0000CC110020054A10B5926812B19E
:1040E000BDE81040104798210420FFF767FF00004B
:1040F000CC1100200548016829B1416819B18068D8
:1041000008B101207047002070470000CC1100204A
:1041100002490DC881E80D0000207047CC11002035
:10412000F8B5124C0026256811E00098022802D04C
:1041300003280CD106E0206810B10020266005E0BD
:1041400028210CE0206868B101202660A847684655
:1041500000F0DCFC0028E8D0052805D0352104203B
:10416000FFF72CFF2D21FAE7F8BD0000A400002086
:104170007CB51F4C0546207840B1A278611C2846CA
:10418000921C08F0D4FC0020207021E0194801F0B6
:10419000E9F900281DD0174C2078142804D10A21F1
:1041A0003E2000F029F818B120780A2805D009E04F
:1041B0001049284609F0D1F80AE005213E2000F018
:1041C0001BF838B10B49284608F01FFE002800D024
:1041D00001207CBDA088ADF8000001A9684609F067
:1041E000F2F90028F5D09C210820FFF7E7FE000037
:1041F000E0120020D811002070B50C46054600F0F2
:104200004BF8002802D03E2D01D0012070BD122CA9
:1042100006D106480178022902D040780028F5D05E
:104220002046BDE8704000F049B800007804002046
:1042300001494870704700007804002070B50A7882
:1042400082703AB3012A25D81323037000230AE0B1
:1042500001EB430400EB4305A678EE706488240A62
:104260005B1C2C71DBB29342F2D300230BE000BF46
:1042700001EB430500EB43042E796671AD882D0AEE
:104280005B1CA571DBB29342F2D3012101EB8200EA
:10429000C0B270BD002070BD402803D2401EC1B224
:1042A000054805E0FF2805D04038C1B20248083073
:1042B00009F07DB801207047A8000020401EC1B25F
:1042C000014809F074B80000B800002002490268F3
:1042D0000A61406848617047A800002005490268EB
:1042E0000A60406842F48C220A60034A1043486026
:1042F00070470000A8000020F807400207484FF070
:10430000FF3100220160C90C416000F108011F204B
:104310000A604A600831C1E900027047A800002025
:1043200010B5FFF7EBFF0020FFF782FF0AF0E0FE79
:1043300004460348006800B18047204610BD0000D5
:10434000C00000200149086070470000C000002044
:10435000022101804180002101712921417149F22E
:104360005C21C1800149816000207047F136819253
:10437000F8B504468A7848780244FF2A02D940F208
:104380005F111DE00A78824202D940F2631117E002
:104390000094C4B100264B7891F802C04A790CEB26
:1043A0000300C5B2AA4200D91546C878A84200D970
:1043B0000546E71C27F00307A74206D040F2791113
:1043C0001720FFF7FBFD0126E5E7154F3B7087F847
:1043D00001C0B8700879F8703A713146684600F04B
:1043E000C3F800218C460098C01C20F00300009008
:1043F0005EB907EB8103D861002004E0DA6942F876
:1044000020C0401CC0B2A842F8D30098491C00EB61
:104410008500C9B200900529E5D3001BF8BD000056
:10442000E413002070B5044609F017FC08B1102011
:1044300070BD257800F0D4F802460C48618800EB86
:1044400085000EE0C36953F8213043B14A1C6280F5
:10445000A180C06950F82100A060002070BD491CF7
:1044600089B29142EED36180052070BDE413002033
:104470002DE9F0410746A0F57F400C4643F20206C5
:10448000FF3820D0052C02D30720BDE8F081384644
:1044900000F05AF8050016D00C48294650F82420A0
:1044A000384690470A48002100EB8406F06940F83E
:1044B0002710204600F08AF802462946B06809F025
:1044C000A7FA0020E1E73046DFE700001C460000C5
:1044D000E41300202DE9F04190460E46074609F00E
:1044E000C9FA48B1164800EB8604E06950F8270085
:1044F00028B14FF49D7115E040F2391112E0A06827
:1045000000281AD0304600F061F80146A06809F092
:1045100027FA050010D0E069052E40F8275004D393
:1045200040F245111720FFF749FD0648424629464B
:1045300050F82630384698472846BDE8F0810000FC
:10454000E41300200846000070B50C46054609F04B
:1045500091FA002805D0034800EB8400C06950F8A8
:10456000250070BDE41300202DE9F843164F88465E
:10457000054600242868C01C20F00300286020465F
:1045800000F024F8395D4143B8F1000F01D000205C
:1045900000E02868009018B100261EB1002002E05B
:1045A0000126FAE7684609F00CFA1EB907EB840108
:1045B000009A8A602968641C0844E4B22860052CCB
:1045C000D8D3BDE8F8830000E4130020034931F894
:1045D00010004FF6FC71C01C0840704730460000C8
:1045E000084B187859780844C1B29878814200D3B2
:1045F0000846DA78904200D210461979884200D2F3
:1046000008467047E413002089DA000089DA0000C8
:1046100089DA000089DA000089DA000095EB0000F1
:1046200089E60000CFE50000AFF70000B5F7000015
:10463000E8024803580180009000000070B5144C57
:1046400023688BB1197A814212D95A6852F8201026
:1046500071B1002542F820504A88186809F0D8F94D
:10466000216800200A7A0CE0C8211820FFF7A6FC78
:1046700043F2020070BD4B6853F8203033B9401C40
:10468000C0B28242F7D8086809F0B7F9002070BDBF
:10469000C40000202DE9F0410D46040090464FF083
:1046A000000609D00027E01C20F00300A04205D03E
:1046B00086211820FFF782FC0127F4E7CDB11146CF
:1046C000002009F07EF90C3000EB85068FB90A4F07
:1046D00004F10C00AA003C602572606000EB8500CC
:1046E00020600021606808F09CFA4146386809F0B3
:1046F00068F93046BDE8F081C4000020094910B5D2
:1047000002460968002049B10B7A934205D94968ED
:1047100051F82210002900D0081D10BDEE211820EC
:10472000FFF74CFCC40000200A4910B50246096896
:10473000002059B10B7A934207D9496851F82210E9
:10474000002902D031F8040B084410BDFC211820C8
:10475000FFF734FCC40000202DE9F0411C4E4568F1
:1047600004460022A1B101206070708883080020F7
:1047700004EB400104EB80060A830B8400FB035129
:1047800071602118401C0A750428F1D3BDE8F0813E
:104790006270002004EB40010A830A8404EB80016C
:1047A0004A602118401C0A750428F3D3708809F068
:1047B00094F90746708809F097F9656020842918F4
:1047C000A1606784E560A0842161E784DEE70000E2
:1047D000C80000202DE9F04780B100261144CFB277
:1047E000DFF89C80C11C002421F0030188F80070D0
:1047F000814205D04E210920FFF7E0FB0126EDE7BD
:104800001F2B04D84FF6FF7101EA830509E0590018
:10481000FF2B0CD903F1FF02B2EB430F00D211467C
:104820008DB24FF6FC71ED1C0D4036B109E07C22D3
:10483000B2EB430FF4D37C21F2E7C8F80400A8F8E8
:10484000025007EB870104EBC10200214FF0010980
:104850000FE05EB9D8F8044001EB810300EB020CD5
:1048600004F8339004EBC303C3F804C0491C2A4482
:10487000C9B2B942EDD3D21D22F00700BDE8F087DE
:10488000C800002070B511480024214602780CE0D1
:10489000456801EB810315F8333023B101EB810149
:1048A00005EBC10403E0491CC9B29142F0D344B105
:1048B0000025A57001212046FFF74EFF25702046F8
:1048C00070BDA9210920FFF779FB0000C800002076
:1048D0000148407870470000D0000020014840683F
:1048E00070470000D00000202DE9F8430C46074631
:1048F00016462E2110460D46224608F0F0FF80464F
:1049000057B13846414632462B46009408F088FF9E
:1049100003484760047046704046BDE8F8830000D5
:10492000D00000200248427801784068FFF7DCBFE1
:10493000D0000020034B00211878C0EBC00258685B
:1049400008F06FB9D800002010B50C4610B1002255
:1049500012B10FE00122FBE7C11C21F003018142EB
:1049600003D020214120FFF729FB044948600C7047
:10497000FFF7E0FFC4EBC40010BD0000D80000202A
:1049800030B50D4901204860821EC1F808230B494B
:1049900088600023C1F80032C1F80823084C236066
:1049A000251D28608860C1F8082323602860064917
:1049B0000448086030BD000000E0004000F0004006
:1049C00000F500400000F63F08F5014010B5044630
:1049D000FFF7D6FF09F00EF900F088F80549044802
:1049E0000860204600F0B8F8BDE8104000F0D0B8EC
:1049F0000000F63F08F501402DE9F84F824638489F
:104A000007F0FEFFDFF8D8B028B101260BF1010056
:104A1000FF21017000E000264FF48075314C4FF00B
:104A200000082F1D01216160C4F80081C4F80481D1
:104A3000C4F804A52160DFF8B0901CE0D9F80000AC
:104A4000C00618D50E2009F0E4F8EFF310800090AE
:104A500072B603212046C4F80413294609F0E6F88B
:104A600030B93946204609F0E1F808B9FEF7D4FF1D
:104A7000009800B962B62946204609F0D7F828B94F
:104A80003946204609F0D2F80028D7D039462046CA
:104A900009F0CCF80028C5D106BB9BF801108DF8B1
:104AA0000010009900919DF8001009B1012500E067
:104AB00000250BF1010080F800800320C4F80803F2
:104AC000C4F80481C4F800810E2009F0A2F804485B
:104AD00007F0ADFF15B11120BDE8F88F0020FBE70E
:104AE0007A04002000E0004010ED00E010B5064818
:104AF00007F099FF18B127211D20FFF75FFA024840
:104B00000021417010BD00007A04002070B51149E9
:104B10000A68EAB100231D4601244A68521C4A6013
:104B20000C2A00D34D600E7904FA06F20E68164284
:104B30000BD0EFF3108372B60C6894430C6003B98A
:104B400062B649680160002070BD5B1C0C2BE4D389
:104B5000052070BDE0000020024800210160416096
:104B600070470000E000002010B5084C617809B1E2
:104B70000F2010BDFEF7DCFE2070FF2801D00020C2
:104B800010BD78211F20FFF719FA00000000002057
:104B900001490020487070470000002005498A8DB7
:104BA000824218BF7047002081F82A004FF6FF703C
:104BB00088857047981400200749084B8A8D5B88C8
:104BC0009A4206D191F82A20002A1EBF01600120D6
:104BD00070470020704700009814002064040020F3
:104BE0000A4A10B1012807D00EE0507860B1D2F81F
:104BF00002000860D08804E0107828B1906808604E
:104C00009089888001207047002070477C04002034
:104C1000094A012340B1012818BF70471370086882
:104C2000906088889081704753700868C2F80200CD
:104C30008888D080704700007C040020064910B1AD
:104C4000012803D006E0487810B903E0087808B1DD
:104C500001207047002070477C040020014908773C
:104C600070470000DA0B00200246074810B50078B4
:104C700038B10648817821B1C01C05F05DFE0120E5
:104C800010BD002010BD000068040020DA140020D0
:104C900000487047AD1600202DE9F041124C002667
:104CA0003546A07800288CBF104FBDE8F081601910
:104CB00090F83B2190F80311012A02D090F84B01A3
:104CC00058B104EBC100BD5590F8532100F5AA710D
:104CD0003046731CDEB207F055F9681CC5B2A078E7
:104CE000A842E4D8BDE8F081DA1400206C0400206A
:104CF00004498A78824286BF084490F84301002024
:104D000070470000DA14002004498A78824286BF86
:104D100001EB00108330002070470000DA140020FF
:104D20002DE9F041134C06460025A078002898BFD5
:104D3000BDE8F081C0B2A84214D904EB051083305D
:104D400010D0611991F8431161B905EB450104EBED
:104D5000410707F20B11324608F0BCFFB7F80F010C
:104D6000A7F80F01681CC5B2A078A842E2D8BDE838
:104D7000F0810000DA14002008498A78824203D9C1
:104D80000A1892F843210AB10020704700EB400056
:104D900001EB400000F20B1070470000DA14002015
:104DA00010B540F2D3120021074807F03AFF08225D
:104DB000FF21064807F035FF0548002101704170CA
:104DC0004FF46171418010BDDA1400206C040020A2
:104DD0006804002070B50C46054605F0D3FE05F0CA
:104DE000C3FD0A482A46007868B1094B997851B149
:104DF000002C0CBF03F18300D81C05F09DFD05F0CD
:104E0000DDFD012070BD002070BD000068040020A1
:104E1000DA1400200B4B93F802C084459CBF00209D
:104E20007047184490F8030103EBC00090F8533129
:104E30000B70D0F854111160B0F858019080012027
:104E400070470000DA14002007498A7882429CBF2C
:104E500000207047084490F8030101EBC00090F86F
:104E60005A0100F001007047DA140020024606489B
:104E700010B500EB01100121833005F05DFDBDE8A8
:104E8000104005F09BBD0000DA1400200148408866
:104E900070470000680400202DE9F0411746012505
:104EA00000221E462C463A7000F02CF9102827D01C
:104EB000184901EBC00292F85A2102F001023A703F
:104EC0008B780022002B1BD901EB020C9CF803C14C
:104ED000844519D1102A13D0002E18BF327088785B
:104EE00090420DD901EB021010F1030F08D0881881
:104EF00090F84B4190F83B0101280CBF012500259B
:104F000045EA0400BDE8F081521CD2B29342DBD8DE
:104F1000F6E70000DA14002070B50D46044600F0F4
:104F2000F1F81A4A102814D002EBC00191F85A0186
:104F300010F0010F1CBF012070BD507808283CBF45
:104F4000012081F85A011ED25078401C5070012077
:104F500070BD5078082816D213780120591C1170A2
:104F6000102B03D346212820FFF728F802EBC303B8
:104F70002968C3F85411A988A3F8581183F853413C
:104F800083F85A01E0E7002070BD0000DA14002029
:104F900001484078704700006804002001494870CB
:104FA000704700006804002070B42B480025017889
:104FB000491E4BB2002B46DB00EBC30191F85A119E
:104FC00011F0010F3BD04278D9B2521E427000EB73
:104FD000C10282F85A5190F802C00022BCF1000FC1
:104FE0000BD9841894F803618E4202D1102A26D17D
:104FF00003E0521CD2B29445F3D80278521ED2B2CA
:1050000002708A421BD000EBC20200EBC10CD2F846
:105010005341CCF85341D2F85721CCF8572184782A
:1050200090F800C00022002C09D9861896F8036178
:1050300066450CD1102A1CBF024482F80311591E88
:105040004BB2002BB8DA0548457070BC7047521C53
:10505000D2B29442E9D8F2E7DA14002068040020C2
:105060002DE9F041254D00263446287800288CBFD4
:10507000234FBDE8F08100BF05EBC40090F85A1142
:1050800011F0010F32D0AA7800212346002A09D955
:1050900005EB010C9CF803C19C4504D0491CC9B226
:1050A0008A42F5D810218A4286BF05EB0112D31C33
:1050B0000023002210290CD005EB010C9CF83B8149
:1050C000B8F1010F04D09CF84BC1BCF1000F00D027
:1050D0000122521E134209D1B95590F8532100F50F
:1050E000AA713046731CDEB206F04CFF601CC4B2DD
:1050F0002878A042C0D8BDE8F0810000DA14002072
:105100006C0400202DE9F00F204B0246002093F89C
:105110000080B8F1000F34D90F784E788D78CC78B4
:1051200091F804C091F805A003EBC00191F85391E8
:1051300091F854B182EA090987EA0B0BD94491F836
:1051400055B186EA0B0BD94491F856B185EA0B0BA1
:10515000D94491F857B184EA0B0BD94491F858B16E
:1051600091F859118CEA0B0BD9448AEA010111EB31
:10517000090F04BFBDE8F00F7047401CC0B2804566
:10518000D2D8BDE8F00F102070470000DA140020DC
:10519000254910B44A7801EBC003521E4A70002220
:1051A00083F85A2191F802C0BCF1000F0DD98B1879
:1051B00093F80341844204D1102A1CBF10BC7047ED
:1051C00003E0521CD2B29445F1D80A78521ED2B2F2
:1051D0000A70824204BF10BC704701EBC00301EBB0
:1051E000C202D2F853C1C3F853C1D2F85721C3F851
:1051F00057218C7891F800C00022002C9CBF10BC75
:1052000070478B1893F80331634506D1102A1CBFF1
:10521000114481F8030110BC7047521CD2B2944271
:10522000EFD810BC70470000DA14002070B58CB0C5
:1052300000F110041D4616460DF1FF3C5FF008001A
:1052400014F8012C8CF8012014F8022D0CF8022F10
:10525000401EF5D101F1100C6C460DF10F01082034
:105260001CF8012C4A701CF8022D01F8022F401E78
:10527000F6D1204608F0E7FC7EB16A1E04F130004A
:105280005FF0080110F8013C537010F8023D02F87D
:10529000023F491EF6D10CB070BD089828600998ED
:1052A00068600A98A8600B98E8600CB070BD0000B8
:1052B0002DE9F05F044690468A464FF00109084602
:1052C00008F0CCFF0546504608F0CCFF074610F02A
:1052D000010F18BF01262BD015F0010F18BF4FF09A
:1052E000010B30D056EA0B0008BF4FF0000905F063
:1052F000ABFA384208BF002605F0A6FA284208BFDC
:105300004FF0000B94F87200B0420CBF0020304602
:1053100088F8000094F87310594508BF4FF0000B4F
:1053200088F801B0002808BFBBF1000F28D118E0B1
:1053300010F0020F18BF0226CED117F0040F14BFD1
:1053400008260026C8E715F0020F18BF4FF0020B21
:10535000C8D115F0040F14BF4FF0080B4FF0000B2D
:10536000C0E7504608F07CFFB4F89410401A00B231
:1053700047F6FE71884201DC002801DC4FF000098D
:1053800016B1082E10D01FE094F87200012818BF43
:10539000022819D0042818BF082805D040F2A921F6
:1053A0004FF00600FEF70AFE94F8440101280BD1E5
:1053B000B4F84801012894F8720008D0082803D0F6
:1053C0005FF0080088F800004846BDE8F09F042818
:1053D00018BF0420F6D1F3E741F64C5291423DBF8D
:1053E0000549A1FB0010400940F2E24128BFB0FB93
:1053F000F1F080B2704700001F85EB5141F64C522E
:1054000091423DBF0549A1FB0010400940F2E24135
:1054100028BFB0FBF1F0C0B2704700001F85EB5110
:10542000074908B509788DF800109DF8001000298B
:105430001CBF002008BD03490AF0E8F9012008BD9F
:105440008A0400208B04002010B5054CFF21217038
:105450000146601C0AF0DAF90020207010BD00003F
:105460008A04002010B50446401C884218BF0AF088
:10547000CDF9607900F01F006071002084F80B0006
:1054800004EB000C401C9CF8012002F001015208C2
:1054900002F001031944520802F0010319445208B2
:1054A00002F001030B44510801F001021A444908BB
:1054B00001F001031A44490801F001031A4402EB08
:1054C00051018CF80610E27A05281144E172D7DB0D
:1054D00010BD00000449897D01F0040108430CBFA0
:1054E0000120002070470000141400200348807D34
:1054F00010F0020F0CBF0120002070471414002090
:105500000348807D10F0010F0CBF01200020704780
:105510001414002008B5D8B1037A8DF800309DF836
:105520000030002B18BF08BD002303604160EFF37B
:10553000108372B60A49D1F800C0BCF1000F1ABF3F
:10554000D1F804C0CCF800000860486033B904E02A
:1055500040F241411020FEF731FD62B6027208BDF3
:10556000EC0000202DE9F04F87B004000FD0FE487A
:10557000012700250178002908BFDFF8F0B30BD020
:105580006570032121702771057000F0BAB840F2F0
:105590005D311020FEF712FDDBF80000A846002860
:1055A00008BF464622D0017A8DF800109DF8001001
:1055B000082909D140680088FFF7A0F808F05CF8D6
:1055C000002808BF2E4611D0EFF31080DBF80060F2
:1055D00072B63168CBF8001000B962B6307A8DF837
:1055E00000009DF80000002808BFB846B8F1000F81
:1055F000D2D1DEB1307A8DF800009DF80080B8F18C
:10560000220F80F08482DFE808F0FEFD8024FCFD9C
:10561000FDFBFDFDFDFDFDFE24FCFDFD24FC5454C1
:1056200054FDFD24FDFDFAF924F815F707B000201C
:10563000BDE8F08F6570142020706560A560E5609E
:1056400025616561A561E5610220256220713572E1
:1056500057E0C7480368002B04BFA946357250D0F5
:10566000706842462146984720787168142802D015
:10567000172803D01BE0207930B918E02079B0B1A9
:10568000084608F0E9FF90B9E4880121204608F0B7
:10569000D6F960B10088FFF781FA01212046FEF7B4
:1056A000E7FE20B14FF4AF711020FEF787FC357292
:1056B00027E0B0480368002B04BFA946357220D00C
:1056C000B8F1150F17D077684246214638469847FB
:1056D00020781B2803D019280BD1207948B13889AC
:1056E0000421FEF7C5FE28B14FF46B711020FEF7C0
:1056F00065FC357205E0A04B706800221B682146EE
:10570000984707B00120BDE8F08F9C480368002B44
:1057100004BFA9463572F4D00222214600209847E2
:1057200005F048F80028ECD02078052803D0CF21D8
:105730001020FEF743FCA07B10F0100F22D01C229B
:10574000211D8F4807F0F3F9227B04F120018D48D9
:1057500007F0EDF98A49887A10F0040F02D0C87C6E
:10576000FE2815D04FF00402227008686060486877
:10577000A0600889A081887A10F0080F18BFA27372
:1057800033D11DE04FF0D0014FF01000FEF716FCB2
:10579000132020700878207167714878A071D1F8C3
:1057A0000200C4F80700C888A4F80B00FE2060734C
:1057B0004869C4F80E00088B6082487A2075A0E71B
:1057C00010F0010F1CBF10F0020FA5730DD110F0E7
:1057D000040F18BFA77308D110F0010F16D110F0F5
:1057E000020F18BF022011D0A0730A7A1F2A17D9FE
:1057F0004FF48A71102007E051E183E170E178E114
:1058000058E113E03AE082E1FEF7D8FB10F0030F15
:1058100008BF0320E8D040F211111020FEF7CEFBA4
:10582000584904F10F0007F082F96AE7534803680A
:10583000002B04BFA94635723FF463AF42462146B0
:10584000002098472078182804BF2079012813D118
:10585000E0884FF0000108F0F2F804000CD0208836
:10586000FFF79CF920880021FEF702FE20B14FF4DB
:1058700096711020FEF7A2FB357242E7424800689D
:10588000002800F04981706878B100F1900900F5B6
:10589000B971B0F800A04046B8F1100F63D009DC30
:1058A00001280CD00B2821D0C0E040F2822110202A
:1058B000FEF784FB1A2878D01B2831D0B6E0B9F166
:1058C000000F0DD0657027702571A4F805A099F818
:1058D0005D00E071B9F85E002081B9F86000608178
:1058E000B8F10B0F1CBFA94635720AE75046FEF708
:1058F0001BFF80B165700F212170A4F806A02781DD
:1059000000222771114607F0BEFFB8F10B0F1CBF34
:10591000A9463572F5E64FF4CE711020FEF74EFB26
:10592000FFF7EEFD90B335725046ADF800A002A926
:1059300008F06AFA20B14FF4B7711020FEF73EFB71
:10594000039890F86E108DF8021090F86F108DF893
:105950000310B0F87000ADF804000221684609F0A9
:10596000CEFBD0B114E051E0F8160020EC0000208E
:10597000F4000020040100200001002008010020A4
:10598000BD160020D9160020FC0000204DE00CE0E0
:105990004FF4C2711020FEF711FBB8F10B0F1CBFC2
:1059A000A94635727FF4F8ADABE6FFF79FFDE0B393
:1059B000357203A9504609F000FB20B140F28B116B
:1059C0001020FEF7FBFAADF800A0BDF81200ADF80C
:1059D0000200BDF81400ADF80400BDF80E00ADF8EB
:1059E0000600BDF81000ADF80800684609F014FB89
:1059F00020B14FF4CA711020FEF7E0FAB8F10B0F96
:105A00001CBFA94635727FF4C7AD7AE691F82C0029
:105A100000F00100FFF75EFDC0B1B8F10B0F1CBF35
:105A2000A94635727FF4B8AD6BE6FFE7B8F1080F11
:105A300011D03A4803681BB1706842462146984726
:105A4000B8F10B0F1CBFA94635725AE633480368FC
:105A5000002BF1D1F4E75046FEF750FE07F00CFEA4
:105A6000C0B15046FFF79AF800215046FEF700FDFE
:105A700001215046FEF7FCFCB9F1000F08D065701B
:105A80000C2020702571A4F805A099F82E00E07173
:105A9000357236E640F2C3211020FEF78FFA6570AA
:105AA0001D202070D6F809006060D6F80D00A060B7
:105AB000357226E61948006880B1706865700A2161
:105AC00021700188A180D0F83813D0F83C23C4F8A5
:105AD0000610C4F80A20B0F84003E081357210E6E1
